{
  "address": "0xE5d0f179c089CE24Af498753b80f56d8f1d96Fd4",
  "abi": [
    {
      "inputs": [
        {
          "internalType": "address",
          "name": "_settings_address",
          "type": "address"
        },
        {
          "internalType": "address",
          "name": "_vault_address",
          "type": "address"
        }
      ],
      "stateMutability": "nonpayable",
      "type": "constructor"
    },
    {
      "anonymous": false,
      "inputs": [
        {
          "indexed": false,
          "internalType": "uint256",
          "name": "index",
          "type": "uint256"
        },
        {
          "indexed": false,
          "internalType": "address",
          "name": "provider",
          "type": "address"
        },
        {
          "indexed": false,
          "internalType": "uint256",
          "name": "deal_index",
          "type": "uint256"
        }
      ],
      "name": "AppealCreated",
      "type": "event"
    },
    {
      "anonymous": false,
      "inputs": [
        {
          "indexed": false,
          "internalType": "uint256",
          "name": "index",
          "type": "uint256"
        }
      ],
      "name": "AppealStarted",
      "type": "event"
    },
    {
      "anonymous": false,
      "inputs": [
        {
          "indexed": false,
          "internalType": "uint256",
          "name": "index",
          "type": "uint256"
        }
      ],
      "name": "DealInvalidated",
      "type": "event"
    },
    {
      "anonymous": false,
      "inputs": [
        {
          "indexed": true,
          "internalType": "address",
          "name": "previousOwner",
          "type": "address"
        },
        {
          "indexed": true,
          "internalType": "address",
          "name": "newOwner",
          "type": "address"
        }
      ],
      "name": "OwnershipTransferred",
      "type": "event"
    },
    {
      "anonymous": false,
      "inputs": [
        {
          "indexed": false,
          "internalType": "uint256",
          "name": "index",
          "type": "uint256"
        }
      ],
      "name": "RoundSlashed",
      "type": "event"
    },
    {
      "inputs": [
        {
          "internalType": "uint256",
          "name": "",
          "type": "uint256"
        }
      ],
      "name": "active_appeals",
      "outputs": [
        {
          "internalType": "uint256",
          "name": "",
          "type": "uint256"
        }
      ],
      "stateMutability": "view",
      "type": "function"
    },
    {
      "inputs": [
        {
          "internalType": "uint256",
          "name": "",
          "type": "uint256"
        }
      ],
      "name": "active_referees",
      "outputs": [
        {
          "internalType": "address",
          "name": "",
          "type": "address"
        }
      ],
      "stateMutability": "view",
      "type": "function"
    },
    {
      "inputs": [
        {
          "internalType": "uint256",
          "name": "",
          "type": "uint256"
        }
      ],
      "name": "appeals",
      "outputs": [
        {
          "internalType": "uint256",
          "name": "deal_index",
          "type": "uint256"
        },
        {
          "internalType": "bool",
          "name": "active",
          "type": "bool"
        },
        {
          "internalType": "uint128",
          "name": "slashes",
          "type": "uint128"
        },
        {
          "internalType": "uint256",
          "name": "request_timestamp",
          "type": "uint256"
        },
        {
          "internalType": "uint256",
          "name": "origin_timestamp",
          "type": "uint256"
        }
      ],
      "stateMutability": "view",
      "type": "function"
    },
    {
      "inputs": [
        {
          "internalType": "uint256",
          "name": "deal_index",
          "type": "uint256"
        },
        {
          "internalType": "address",
          "name": "appeal_address",
          "type": "address"
        }
      ],
      "name": "canAddressAppeal",
      "outputs": [
        {
          "internalType": "bool",
          "name": "",
          "type": "bool"
        }
      ],
      "stateMutability": "view",
      "type": "function"
    },
    {
      "inputs": [
        {
          "internalType": "uint256",
          "name": "deal_index",
          "type": "uint256"
        }
      ],
      "name": "createAppeal",
      "outputs": [],
      "stateMutability": "nonpayable",
      "type": "function"
    },
    {
      "inputs": [
        {
          "internalType": "uint256",
          "name": "appeal_index",
          "type": "uint256"
        }
      ],
      "name": "getElectedLeader",
      "outputs": [
        {
          "internalType": "address",
          "name": "",
          "type": "address"
        }
      ],
      "stateMutability": "view",
      "type": "function"
    },
    {
      "inputs": [
        {
          "internalType": "uint256",
          "name": "appeal_index",
          "type": "uint256"
        }
      ],
      "name": "getPrefix",
      "outputs": [
        {
          "internalType": "bytes",
          "name": "",
          "type": "bytes"
        }
      ],
      "stateMutability": "view",
      "type": "function"
    },
    {
      "inputs": [
        {
          "internalType": "uint256",
          "name": "appeal_index",
          "type": "uint256"
        }
      ],
      "name": "getRound",
      "outputs": [
        {
          "internalType": "uint256",
          "name": "",
          "type": "uint256"
        }
      ],
      "stateMutability": "view",
      "type": "function"
    },
    {
      "inputs": [
        {
          "internalType": "uint256",
          "name": "deal_index",
          "type": "uint256"
        }
      ],
      "name": "hasNoActiveAppeals",
      "outputs": [
        {
          "internalType": "bool",
          "name": "",
          "type": "bool"
        }
      ],
      "stateMutability": "view",
      "type": "function"
    },
    {
      "inputs": [
        {
          "internalType": "uint256",
          "name": "deal_index",
          "type": "uint256"
        }
      ],
      "name": "hasNoPendingAppeals",
      "outputs": [
        {
          "internalType": "bool",
          "name": "",
          "type": "bool"
        }
      ],
      "stateMutability": "view",
      "type": "function"
    },
    {
      "inputs": [
        {
          "internalType": "address",
          "name": "check",
          "type": "address"
        }
      ],
      "name": "isReferee",
      "outputs": [
        {
          "internalType": "bool",
          "name": "",
          "type": "bool"
        }
      ],
      "stateMutability": "view",
      "type": "function"
    },
    {
      "inputs": [],
      "name": "owner",
      "outputs": [
        {
          "internalType": "address",
          "name": "",
          "type": "address"
        }
      ],
      "stateMutability": "view",
      "type": "function"
    },
    {
      "inputs": [
        {
          "internalType": "uint256",
          "name": "",
          "type": "uint256"
        }
      ],
      "name": "pending_appeals",
      "outputs": [
        {
          "internalType": "uint256",
          "name": "",
          "type": "uint256"
        }
      ],
      "stateMutability": "view",
      "type": "function"
    },
    {
      "inputs": [
        {
          "internalType": "uint256",
          "name": "deal_index",
          "type": "uint256"
        },
        {
          "internalType": "address[]",
          "name": "_referees",
          "type": "address[]"
        },
        {
          "internalType": "bytes[]",
          "name": "_signatures",
          "type": "bytes[]"
        }
      ],
      "name": "processAppeal",
      "outputs": [],
      "stateMutability": "nonpayable",
      "type": "function"
    },
    {
      "inputs": [],
      "name": "refereeConsensusThreshold",
      "outputs": [
        {
          "internalType": "uint256",
          "name": "",
          "type": "uint256"
        }
      ],
      "stateMutability": "view",
      "type": "function"
    },
    {
      "inputs": [
        {
          "internalType": "address",
          "name": "",
          "type": "address"
        }
      ],
      "name": "referees",
      "outputs": [
        {
          "internalType": "bool",
          "name": "active",
          "type": "bool"
        },
        {
          "internalType": "string",
          "name": "endpoint",
          "type": "string"
        }
      ],
      "stateMutability": "view",
      "type": "function"
    },
    {
      "inputs": [],
      "name": "renounceOwnership",
      "outputs": [],
      "stateMutability": "nonpayable",
      "type": "function"
    },
    {
      "inputs": [
        {
          "internalType": "uint256",
          "name": "deal_index",
          "type": "uint256"
        }
      ],
      "name": "returnAppealFee",
      "outputs": [
        {
          "internalType": "uint256",
          "name": "",
          "type": "uint256"
        }
      ],
      "stateMutability": "view",
      "type": "function"
    },
    {
      "inputs": [
        {
          "internalType": "address",
          "name": "_deals_address",
          "type": "address"
        }
      ],
      "name": "setDealsAddress",
      "outputs": [],
      "stateMutability": "nonpayable",
      "type": "function"
    },
    {
      "inputs": [
        {
          "internalType": "address",
          "name": "_referee",
          "type": "address"
        },
        {
          "internalType": "bool",
          "name": "_state",
          "type": "bool"
        },
        {
          "internalType": "string",
          "name": "_endpoint",
          "type": "string"
        }
      ],
      "name": "setRefereeStatus",
      "outputs": [],
      "stateMutability": "nonpayable",
      "type": "function"
    },
    {
      "inputs": [
        {
          "internalType": "uint256",
          "name": "appeal_index",
          "type": "uint256"
        }
      ],
      "name": "startAppeal",
      "outputs": [],
      "stateMutability": "nonpayable",
      "type": "function"
    },
    {
      "inputs": [
        {
          "internalType": "uint256",
          "name": "",
          "type": "uint256"
        }
      ],
      "name": "tot_appeals",
      "outputs": [
        {
          "internalType": "uint8",
          "name": "",
          "type": "uint8"
        }
      ],
      "stateMutability": "view",
      "type": "function"
    },
    {
      "inputs": [],
      "name": "totalAppeals",
      "outputs": [
        {
          "internalType": "uint256",
          "name": "",
          "type": "uint256"
        }
      ],
      "stateMutability": "view",
      "type": "function"
    },
    {
      "inputs": [
        {
          "internalType": "address",
          "name": "newOwner",
          "type": "address"
        }
      ],
      "name": "transferOwnership",
      "outputs": [],
      "stateMutability": "nonpayable",
      "type": "function"
    },
    {
      "inputs": [
        {
          "internalType": "bytes",
          "name": "_signature",
          "type": "bytes"
        },
        {
          "internalType": "uint256",
          "name": "deal_index",
          "type": "uint256"
        },
        {
          "internalType": "address",
          "name": "referee",
          "type": "address"
        }
      ],
      "name": "verifyRefereeSignature",
      "outputs": [
        {
          "internalType": "bool",
          "name": "",
          "type": "bool"
        }
      ],
      "stateMutability": "view",
      "type": "function"
    }
  ],
  "transactionHash": "0x31d4bd7ad6eb65d711a37649a3ec19a20c9ff87f32c5080a5c898d65d76503e6",
  "args": [
    "0x591239742B2f363e10880f74B84fDa0bd19e5F2F",
    "0x1454e343dB91a6Aad1Df60F5845049AdDf439C5E"
  ],
  "numDeployments": 11,
  "solcInputHash": "5d73314b8de8cb0d8361a4245c0a3bf7",
  "bytecode": "0x60806040523480156200001157600080fd5b50604051620037bf380380620037bf8339810160408190526200003491620000ff565b6200003f3362000075565b60018055600280546001600160a01b039384166001600160a01b0319918216179091556004805492909316911617905562000142565b600080546001600160a01b038381166001600160a01b0319831681178455604051919092169283917f8be0079c531659141344cd1fd0a4f28419497f9722a3daafe3b4186f6b6457e09190a35050565b60006001600160a01b0382165b92915050565b620000e381620000c5565b8114620000ef57600080fd5b50565b8051620000d281620000d8565b60008060408385031215620001175762000117600080fd5b6000620001258585620000f2565b92505060206200013885828601620000f2565b9150509250929050565b61366d80620001526000396000f3fe608060405234801561001057600080fd5b50600436106101a35760003560e01c806388ca9d2f116100ee578063a008d89311610097578063acff868711610071578063acff8687146103d0578063f0b070ca1461042c578063f2fde38b1461043f578063f3c4e5f21461045257600080fd5b8063a008d89314610371578063a44afce21461039d578063ace71f63146103bd57600080fd5b80638f1327c0116100c85780638f1327c01461031a57806392bf42891461032d5780639414b9021461035157600080fd5b806388ca9d2f146102d657806388f8724d146102e95780638da5cb5b1461030957600080fd5b80633d30303911610150578063715018a61161012a578063715018a61461029b57806383a0dbfe146102a357806386478a0a146102c357600080fd5b80633d3030391461023757806364a60b47146102675780636aa921cd1461028857600080fd5b8063212180811161018157806321218081146101fc57806338b1f7521461021157806339ab480a1461022457600080fd5b80630e1f06fb146101a857806314d967d1146101df5780631fa879e8146101f4575b600080fd5b6101c96101b6366004612332565b6000908152600960205260409020541590565b6040516101d69190612365565b60405180910390f35b6101e7610465565b6040516101d69190612379565b6101e761048b565b61020f61020a366004612332565b61049b565b005b6101c961021f3660046123ac565b61056f565b6101e7610232366004612332565b610603565b61025a610245366004612332565b60086020526000908152604090205460ff1681565b6040516101d691906123f2565b61027a610275366004612400565b6106ff565b6040516101d6929190612477565b61020f6102963660046126bf565b6107a8565b61020f611081565b6101e76102b1366004612332565b60096020526000908152604090205481565b61020f6102d1366004612400565b611095565b61020f6102e4366004612758565b6110bf565b6102fc6102f7366004612332565b6111f0565b6040516101d691906127c2565b6000546001600160a01b03166102fc565b6101e7610328366004612332565b6112ab565b6101c961033b366004612332565b6000908152600a60205260409020546063111590565b61036461035f366004612332565b611510565b6040516101d691906127d0565b6101c961037f366004612400565b6001600160a01b031660009081526005602052604090205460ff1690565b6101e76103ab366004612332565b600a6020526000908152604090205481565b6101c96103cb3660046127e1565b611572565b61041b6103de366004612332565b60076020526000908152604090208054600182015460038301546004840154600590940154929360ff909216926001600160801b03909116919085565b6040516101d6959493929190612850565b61020f61043a366004612332565b6115ea565b61020f61044d366004612400565b611c4a565b6102fc610460366004612332565b611c81565b600654600090819060029061047b9060646128b2565b61048591906128e7565b92915050565b6000610496600b5490565b905090565b600081815260076020526040902060050154156104d35760405162461bcd60e51b81526004016104ca90612932565b60405180910390fd5b3360009081526005602052604090205460ff166105025760405162461bcd60e51b81526004016104ca90612976565b60008181526007602090815260408083204260058201558054845260098352818420849055548352600a90915290819020829055517f5f2f99bd7614bf1ceaf9ef1d2e1a64cf8de13e424ae866a950717befe7b05de290610564908390612379565b60405180910390a150565b6003546040517f02a8fbaf0000000000000000000000000000000000000000000000000000000081526000916001600160a01b0316906302a8fbaf906105bb9086908690600401612986565b602060405180830381865afa1580156105d8573d6000803e3d6000fd5b505050506040513d601f19601f820116820180604052508101906105fc91906129ac565b9392505050565b600080600260009054906101000a90046001600160a01b03166001600160a01b0316632fe586116040518163ffffffff1660e01b8152600401602060405180830381865afa158015610659573d6000803e3d6000fd5b505050506040513d601f19601f8201168201806040525081019061067d91906129e1565b6003546040516307fa648b60e11b815260ff92909216916001600160a01b0390911690630ff4c916906106b4908790600401612379565b602060405180830381865afa1580156106d1573d6000803e3d6000fd5b505050506040513d601f19601f820116820180604052508101906106f59190612a0d565b6105fc91906128e7565b6005602052600090815260409020805460018201805460ff909216929161072590612a44565b80601f016020809104026020016040519081016040528092919081815260200182805461075190612a44565b801561079e5780601f106107735761010080835404028352916020019161079e565b820191906000526020600020905b81548152906001019060200180831161078157829003601f168201915b5050505050905082565b6000838152600a6020526040812054906107c1826112ab565b90506107cc83611cab565b156107e95760405162461bcd60e51b81526004016104ca90612acd565b6003546040516382afd23b60e01b81526001600160a01b03909116906382afd23b90610819908890600401612379565b602060405180830381865afa158015610836573d6000803e3d6000fd5b505050506040513d601f19601f8201168201806040525081019061085a91906129ac565b6108765760405162461bcd60e51b81526004016104ca90612b11565b60008281526007602052604090206001015460ff166108a75760405162461bcd60e51b81526004016104ca90612b55565b3360009081526005602052604090205460ff166108d65760405162461bcd60e51b81526004016104ca90612bbf565b600260009054906101000a90046001600160a01b03166001600160a01b031663335d4d5b6040518163ffffffff1660e01b8152600401602060405180830381865afa158015610929573d6000803e3d6000fd5b505050506040513d601f19601f8201168201806040525081019061094d91906129e1565b60ff1681111561096f5760405162461bcd60e51b81526004016104ca90612c29565b600082815260076020908152604080832084845260020190915290205460ff16156109ac5760405162461bcd60e51b81526004016104ca90612c6d565b60008281526007602090815260408083208484526002019091528120805460ff19166001179055336109dd846111f0565b6001600160a01b031603610a3f57600083815260076020526040812060030180546001600160801b031691610a1183612c7d565b91906101000a8154816001600160801b0302191690836001600160801b031602179055505060019050610b2f565b60005b8551811015610ac3576000868281518110610a5f57610a5f612cbe565b602002602001015190506000868381518110610a7d57610a7d612cbe565b60200260200101519050610a92818a84611572565b610aae5760405162461bcd60e51b81526004016104ca90612d08565b50508080610abb90612d18565b915050610a42565b50610acc610465565b8451610ad99060646128b2565b1115610b2f57600083815260076020526040812060030180546001600160801b031691610b0583612c7d565b91906101000a8154816001600160801b0302191690836001600160801b0316021790555050600190505b80610b4c5760405162461bcd60e51b81526004016104ca90612d85565b7fa1c5ef3d5097627088df57042f85d34fffc6946dc075a6c46c90f11ba02f11b283604051610b7b9190612379565b60405180910390a1600260009054906101000a90046001600160a01b03166001600160a01b0316636522514f6040518163ffffffff1660e01b8152600401602060405180830381865afa158015610bd6573d6000803e3d6000fd5b505050506040513d601f19601f82011682018060405250810190610bfa91906129e1565b60008481526007602052604090206003015460ff919091166001600160801b0390911610611079576003546040517f1f77f6a80000000000000000000000000000000000000000000000000000000081526001600160a01b0390911690631f77f6a890610c6b908990600401612379565b600060405180830381600087803b158015610c8557600080fd5b505af1158015610c99573d6000803e3d6000fd5b50505060008481526007602052604090819020600101805460ff191690556004805460035492516307fa648b60e11b81526001600160a01b03918216945063f33e22529390911691630ff4c91691610cf3918c9101612379565b602060405180830381865afa158015610d10573d6000803e3d6000fd5b505050506040513d601f19601f82011682018060405250810190610d349190612a0d565b6040518263ffffffff1660e01b8152600401610d509190612379565b600060405180830381600087803b158015610d6a57600080fd5b505af1158015610d7e573d6000803e3d6000fd5b50506004805460035460405163620d1b0560e11b81526001600160a01b03928316955063f5d82b6b945091169163c41a360a91610dbd918c9101612379565b602060405180830381865afa158015610dda573d6000803e3d6000fd5b505050506040513d601f19601f82011682018060405250810190610dfe9190612da0565b6003546040516307fa648b60e11b81526001600160a01b0390911690630ff4c91690610e2e908c90600401612379565b602060405180830381865afa158015610e4b573d6000803e3d6000fd5b505050506040513d601f19601f82011682018060405250810190610e6f9190612a0d565b6040518363ffffffff1660e01b8152600401610e8c929190612dc1565b600060405180830381600087803b158015610ea657600080fd5b505af1158015610eba573d6000803e3d6000fd5b50506003546040517f2a62a490000000000000000000000000000000000000000000000000000000008152600093506001600160a01b039091169150632a62a49090610f0a908a90600401612379565b602060405180830381865afa158015610f27573d6000803e3d6000fd5b505050506040513d601f19601f82011682018060405250810190610f4b9190612a0d565b600480546040517ff33e22520000000000000000000000000000000000000000000000000000000081529293506001600160a01b03169163f33e225291610f9491859101612379565b600060405180830381600087803b158015610fae57600080fd5b505af1158015610fc2573d6000803e3d6000fd5b5050600480546040517f98c991b30000000000000000000000000000000000000000000000000000000081526001600160a01b0390911693506398c991b3925061100e91859101612379565b600060405180830381600087803b15801561102857600080fd5b505af115801561103c573d6000803e3d6000fd5b505050507f6d23472f0f752e5a870afc2dc90ac634638d1333424ca7e389afe92815383b278760405161106f9190612379565b60405180910390a1505b505050505050565b611089611dfe565b6110936000611e28565b565b61109d611dfe565b600380546001600160a01b0319166001600160a01b0392909216919091179055565b6110c7611dfe565b811561118a576001600160a01b03831660009081526005602052604090205460ff16156111065760405162461bcd60e51b81526004016104ca90612e36565b6001600160a01b0383166000908152600560205260409020805460ff19168315151781556001016111378282612eea565b50600680546001810182556000919091527ff652222313e28459528d920b65115c16c04f3efc82aaedc97be59f3f377c0d3f0180546001600160a01b0385166001600160a01b0319909116179055505050565b60005b6006548110156111e957836001600160a01b0316600682815481106111b4576111b4612cbe565b6000918252602090912001546001600160a01b0316036111d7576111d781611e78565b806111e181612d18565b91505061118d565b505b505050565b6000806111fc836112ab565b60008481526007602052604081206005015491925090829061121f908690612fad565b6112299190612fad565b6040516020016112399190612fc0565b60408051601f19818403018152919052805160209091012060065490915060009061126481846128e7565b61126e91906128b2565b6112789083612fd5565b90506006818154811061128d5761128d612cbe565b6000918252602090912001546001600160a01b031695945050505050565b600080600260009054906101000a90046001600160a01b03166001600160a01b031663335d4d5b6040518163ffffffff1660e01b8152600401602060405180830381865afa158015611301573d6000803e3d6000fd5b505050506040513d601f19601f8201168201806040525081019061132591906129e1565b60ff16600260009054906101000a90046001600160a01b03166001600160a01b031663d1b04e9e6040518163ffffffff1660e01b8152600401602060405180830381865afa15801561137b573d6000803e3d6000fd5b505050506040513d601f19601f8201168201806040525081019061139f9190612fff565b6113a99190613020565b60008481526007602052604081206005015463ffffffff929092169250906113d2908390612fad565b90504281106115065760006113e74283612fd5565b90506000600260009054906101000a90046001600160a01b03166001600160a01b031663d1b04e9e6040518163ffffffff1660e01b8152600401602060405180830381865afa15801561143e573d6000803e3d6000fd5b505050506040513d601f19601f820116820180604052508101906114629190612fff565b6114729063ffffffff16836128e7565b9050600081600260009054906101000a90046001600160a01b03166001600160a01b031663335d4d5b6040518163ffffffff1660e01b8152600401602060405180830381865afa1580156114ca573d6000803e3d6000fd5b505050506040513d601f19601f820116820180604052508101906114ee91906129e1565b60ff166114fb9190612fd5565b979650505050505050565b5060639392505050565b60008181526007602052604081205460609161152b846112ab565b905061153682611f6c565b61153f85611f6c565b61154883611f6c565b60405160200161155a93929190613065565b60405160208183030381529060405292505050919050565b6001600160a01b03811660009081526005602052604081205460ff166115aa5760405162461bcd60e51b81526004016104ca906130ec565b60006115b584611510565b905060006115c28261200d565b905060006115d08288612048565b6001600160a01b0386811691161493505050509392505050565b6115f2612064565b600260009054906101000a90046001600160a01b03166001600160a01b031663e13f8e6c6040518163ffffffff1660e01b8152600401602060405180830381865afa158015611645573d6000803e3d6000fd5b505050506040513d601f19601f8201168201806040525081019061166991906129e1565b60008281526008602052604090205460ff91821691161061169c5760405162461bcd60e51b81526004016104ca90613156565b6003546040516382afd23b60e01b81526001600160a01b03909116906382afd23b906116cc908490600401612379565b602060405180830381865afa1580156116e9573d6000803e3d6000fd5b505050506040513d601f19601f8201168201806040525081019061170d91906129ac565b6117295760405162461bcd60e51b81526004016104ca90612b11565b6003546040517f688f216e0000000000000000000000000000000000000000000000000000000081526001600160a01b039091169063688f216e90611772908490600401612379565b602060405180830381865afa15801561178f573d6000803e3d6000fd5b505050506040513d601f19601f820116820180604052508101906117b391906129ac565b6117cf5760405162461bcd60e51b81526004016104ca90613198565b6003546040517f5a5d096c0000000000000000000000000000000000000000000000000000000081526001600160a01b0390911690635a5d096c9061181a9084903390600401612986565b602060405180830381865afa158015611837573d6000803e3d6000fd5b505050506040513d601f19601f8201168201806040525081019061185b91906129ac565b6118775760405162461bcd60e51b81526004016104ca90613202565b600081815260096020526040902054156118a35760405162461bcd60e51b81526004016104ca90613244565b6000818152600a602052604090205415806118d757506000818152600a60205260409020546063906118d4906112ab565b10155b6118f35760405162461bcd60e51b81526004016104ca906132ae565b6118fc81610603565b600480546040517ff8b2cb4f0000000000000000000000000000000000000000000000000000000081526001600160a01b039091169163f8b2cb4f91611944913391016127c2565b602060405180830381865afa158015611961573d6000803e3d6000fd5b505050506040513d601f19601f820116820180604052508101906119859190612a0d565b10156119a35760405162461bcd60e51b81526004016104ca90613318565b6004546001600160a01b03166326ffee08336119be84610603565b6040518363ffffffff1660e01b81526004016119db929190612dc1565b600060405180830381600087803b1580156119f557600080fd5b505af1158015611a09573d6000803e3d6000fd5b505050506000611a1882610603565b6000838152600860205260408120805492935060ff9092169190611a3b83613328565b91906101000a81548160ff021916908360ff160217905550506000811115611b3e57600654600090611a6d90836128e7565b905060005b600654811015611b3b57600454600680546001600160a01b039092169163f5d82b6b919084908110611aa657611aa6612cbe565b6000918252602090912001546040517fffffffff0000000000000000000000000000000000000000000000000000000060e084901b168152611af6916001600160a01b0316908690600401612dc1565b600060405180830381600087803b158015611b1057600080fd5b505af1158015611b24573d6000803e3d6000fd5b505050508080611b3390612d18565b915050611a72565b50505b611b4c600b80546001019055565b6000611b57600b5490565b60008481526009602090815260408083208490558383526007909152908190208581556001808201805460ff1916909117905542600491820155600354915163620d1b0560e11b81529293507ff56725243f2f0a402c5adb1e89c210b1486962a45b63f1768a2fdccae95e6f359284926001600160a01b03169163c41a360a91611be391899101612379565b602060405180830381865afa158015611c00573d6000803e3d6000fd5b505050506040513d601f19601f82011682018060405250810190611c249190612da0565b85604051611c349392919061333e565b60405180910390a15050611c4760018055565b50565b611c52611dfe565b6001600160a01b038116611c785760405162461bcd60e51b81526004016104ca906133c0565b611c4781611e28565b60068181548110611c9157600080fd5b6000918252602090912001546001600160a01b0316905081565b60008151600003611cbe57506000919050565b60005b60018351611ccf9190612fd5565b811015611df5576000611ce3826001612fad565b90505b8351811015611de2576002848281518110611d0357611d03612cbe565b6020026020010151604051611d1891906133d0565b602060405180830381855afa158015611d35573d6000803e3d6000fd5b5050506040513d601f19601f82011682018060405250810190611d589190612a0d565b6002858481518110611d6c57611d6c612cbe565b6020026020010151604051611d8191906133d0565b602060405180830381855afa158015611d9e573d6000803e3d6000fd5b5050506040513d601f19601f82011682018060405250810190611dc19190612a0d565b03611dd0575060019392505050565b80611dda81612d18565b915050611ce6565b5080611ded81612d18565b915050611cc1565b50600092915050565b6000546001600160a01b031633146110935760405162461bcd60e51b81526004016104ca9061340e565b600080546001600160a01b038381166001600160a01b0319831681178455604051919092169283917f8be0079c531659141344cd1fd0a4f28419497f9722a3daafe3b4186f6b6457e09190a35050565b6006548110611e995760405162461bcd60e51b81526004016104ca90613452565b805b600654611eaa90600190612fd5565b811015611f35576006611ebe826001612fad565b81548110611ece57611ece612cbe565b600091825260209091200154600680546001600160a01b039092169183908110611efa57611efa612cbe565b600091825260209091200180546001600160a01b0319166001600160a01b039290921691909117905580611f2d81612d18565b915050611e9b565b506006805480611f4757611f47613462565b600082815260209020810160001990810180546001600160a01b031916905501905550565b60606000611f798361208d565b600101905060008167ffffffffffffffff811115611f9957611f99612497565b6040519080825280601f01601f191660200182016040528015611fc3576020820181803683370190505b5090508181016020015b600019017f3031323334353637383961626364656600000000000000000000000000000000600a86061a8153600a8504945084611fcd575b509392505050565b60006120198251611f6c565b8260405160200161202b929190613478565b604051602081830303815290604052805190602001209050919050565b6000806000612057858561216f565b91509150612005816121b4565b6002600154036120865760405162461bcd60e51b81526004016104ca906134ea565b6002600155565b6000807a184f03e93ff9f4daa797ed6e38ed64bf6a1f01000000000000000083106120d6577a184f03e93ff9f4daa797ed6e38ed64bf6a1f010000000000000000830492506040015b6d04ee2d6d415b85acef81000000008310612102576d04ee2d6d415b85acef8100000000830492506020015b662386f26fc10000831061212057662386f26fc10000830492506010015b6305f5e1008310612138576305f5e100830492506008015b612710831061214c57612710830492506004015b6064831061215e576064830492506002015b600a83106104855760010192915050565b60008082516041036121a55760208301516040840151606085015160001a61219987828585612263565b945094505050506121ad565b506000905060025b9250929050565b60008160048111156121c8576121c86134fa565b036121d05750565b60018160048111156121e4576121e46134fa565b036122015760405162461bcd60e51b81526004016104ca90613544565b6002816004811115612215576122156134fa565b036122325760405162461bcd60e51b81526004016104ca90613588565b6003816004811115612246576122466134fa565b03611c475760405162461bcd60e51b81526004016104ca906135f2565b6000807f7fffffffffffffffffffffffffffffff5d576e7357a4501ddfe92f46681b20a083111561229a5750600090506003612311565b6000600187878787604051600081526020016040526040516122bf9493929190613602565b6020604051602081039080840390855afa1580156122e1573d6000803e3d6000fd5b5050604051601f1901519150506001600160a01b03811661230a57600060019250925050612311565b9150600090505b94509492505050565b805b8114611c4757600080fd5b80356104858161231a565b60006020828403121561234757612347600080fd5b60006123538484612327565b949350505050565b8015155b82525050565b60208101610485828461235b565b8061235f565b602081016104858284612373565b60006001600160a01b038216610485565b61231c81612387565b803561048581612398565b600080604083850312156123c2576123c2600080fd5b60006123ce8585612327565b92505060206123df858286016123a1565b9150509250929050565b60ff811661235f565b6020810161048582846123e9565b60006020828403121561241557612415600080fd5b600061235384846123a1565b60005b8381101561243c578181015183820152602001612424565b50506000910152565b600061244f825190565b808452602084019350612466818560208601612421565b601f01601f19169290920192915050565b60408101612485828561235b565b81810360208301526123538184612445565b634e487b7160e01b600052604160045260246000fd5b601f19601f830116810181811067ffffffffffffffff821117156124d3576124d3612497565b6040525050565b60006124e560405190565b90506124f182826124ad565b919050565b600067ffffffffffffffff82111561251057612510612497565b5060209081020190565b600061252d612528846124f6565b6124da565b8381529050602080820190840283018581111561254c5761254c600080fd5b835b81811015612570578061256188826123a1565b8452506020928301920161254e565b5050509392505050565b600082601f83011261258e5761258e600080fd5b813561235384826020860161251a565b600067ffffffffffffffff8211156125b8576125b8612497565b601f19601f83011660200192915050565b82818337506000910152565b60006125e36125288461259e565b9050828152602081018484840111156125fe576125fe600080fd5b6120058482856125c9565b600082601f83011261261d5761261d600080fd5b81356123538482602086016125d5565b600061263b612528846124f6565b8381529050602080820190840283018581111561265a5761265a600080fd5b835b8181101561257057803567ffffffffffffffff81111561267e5761267e600080fd5b80860161268b8982612609565b855250506020928301920161265c565b600082601f8301126126af576126af600080fd5b813561235384826020860161262d565b6000806000606084860312156126d7576126d7600080fd5b60006126e38686612327565b935050602084013567ffffffffffffffff81111561270357612703600080fd5b61270f8682870161257a565b925050604084013567ffffffffffffffff81111561272f5761272f600080fd5b61273b8682870161269b565b9150509250925092565b80151561231c565b803561048581612745565b60008060006060848603121561277057612770600080fd5b600061277c86866123a1565b935050602061278d8682870161274d565b925050604084013567ffffffffffffffff8111156127ad576127ad600080fd5b61273b86828701612609565b61235f81612387565b6020810161048582846127b9565b602080825281016105fc8184612445565b6000806000606084860312156127f9576127f9600080fd5b833567ffffffffffffffff81111561281357612813600080fd5b61281f86828701612609565b935050602061283086828701612327565b925050604061273b868287016123a1565b6001600160801b03811661235f565b60a0810161285e8288612373565b61286b602083018761235b565b6128786040830186612841565b6128856060830185612373565b6128926080830184612373565b9695505050505050565b634e487b7160e01b600052601160045260246000fd5b8181028082158382048514176128ca576128ca61289c565b5092915050565b634e487b7160e01b600052601260045260246000fd5b6000826128f6576128f66128d1565b500490565b601281526000602082017f41707065616c2073746172746564207965740000000000000000000000000000815291505b5060200190565b60208082528101610485816128fb565b601f81526000602082017f4f6e6c792072656665726565732063616e2073746172742061707065616c73008152915061292b565b6020808252810161048581612942565b604081016129948285612373565b6105fc60208301846127b9565b805161048581612745565b6000602082840312156129c1576129c1600080fd5b600061235384846129a1565b60ff811661231c565b8051610485816129cd565b6000602082840312156129f6576129f6600080fd5b600061235384846129d6565b80516104858161231a565b600060208284031215612a2257612a22600080fd5b60006123538484612a02565b634e487b7160e01b600052602260045260246000fd5b600281046001821680612a5857607f821691505b602082108103612a6a57612a6a612a2e565b50919050565b602381526000602082017f70726f6365737341707065616c3a204475706c6963617465207369676e61747581527f7265730000000000000000000000000000000000000000000000000000000000602082015291505b5060400190565b6020808252810161048581612a70565b601281526000602082017f4465616c206973206e6f742061637469766500000000000000000000000000008152915061292b565b6020808252810161048581612add565b601481526000602082017f41707065616c206973206e6f74206163746976650000000000000000000000008152915061292b565b6020808252810161048581612b21565b602181526000602082017f4f6e6c792072656665726565732063616e2070726f636573732061707065616c81527f730000000000000000000000000000000000000000000000000000000000000060208201529150612ac6565b6020808252810161048581612b65565b602681526000602082017f546869732061707065616c2063616e27742062652070726f636573736564206181527f6e796d6f7265000000000000000000000000000000000000000000000000000060208201529150612ac6565b6020808252810161048581612bcf565b601c81526000602082017f5468697320726f756e64207761732070726f63657373656420796574000000008152915061292b565b6020808252810161048581612c39565b6001600160801b031660007fffffffffffffffffffffffffffffffff000000000000000000000000000000018201612cb757612cb761289c565b5060010190565b634e487b7160e01b600052603260045260246000fd5b601981526000602082017f5369676e617475726520646f65736e2774206d617463686573000000000000008152915061292b565b6020808252810161048581612cd4565b60006000198203612cb757612cb761289c565b603581526000602082017f41707065616c207761736e277420736c61736865642c206e6f7420746865206c81527f6561646572206f72206e6f20636f6e73656e737573000000000000000000000060208201529150612ac6565b6020808252810161048581612d2b565b805161048581612398565b600060208284031215612db557612db5600080fd5b60006123538484612d95565b60408101612dcf82856127b9565b6105fc6020830184612373565b602481526000602082017f4475706c696361746520726566657265657320617265206e6f74207065726d6981527f747465640000000000000000000000000000000000000000000000000000000060208201529150612ac6565b6020808252810161048581612ddc565b6000610485612e528381565b90565b612e5e83612e46565b81546008840282811b60001990911b908116901990911617825550505050565b60006111eb818484612e55565b81811015612ea657612e9e600082612e7e565b600101612e8b565b5050565b601f8211156111eb576000818152602090206020601f85010481016020851015612ed15750805b612ee36020601f860104830182612e8b565b5050505050565b815167ffffffffffffffff811115612f0457612f04612497565b612f0e8254612a44565b612f19828285612eaa565b6020601f831160018114612f4d5760008415612f355750858201515b600019600886021c1981166002860217865550611079565b600085815260208120601f198616915b82811015612f7d5788850151825560209485019460019092019101612f5d565b86831015612f995784890151600019601f89166008021c191682555b600160028802018855505050505050505050565b808201808211156104855761048561289c565b6000612fcc8284612373565b50602001919050565b818103818111156104855761048561289c565b63ffffffff811661231c565b805161048581612fe8565b60006020828403121561301457613014600080fd5b60006123538484612ff4565b63ffffffff9182169190811690828202908116908181146128ca576128ca61289c565b600061304d825190565b61305b818560208601612421565b9290920192915050565b60006130718286613043565b915061307d8285613043565b91506130898284613043565b95945050505050565b602181526000602082017f50726f76696465642061646472657373206973206e6f7420612072656665726581527f650000000000000000000000000000000000000000000000000000000000000060208201529150612ac6565b6020808252810161048581613092565b602181526000602082017f43616e277420637265617465206d6f72652061707065616c73206f6e2064656181527f6c0000000000000000000000000000000000000000000000000000000000000060208201529150612ac6565b60208082528101610485816130fc565b60208082527f4465616c20656e6465642c2063616e2774206372656174652061707065616c739101908152600061292b565b6020808252810161048581613166565b602b81526000602082017f4f6e6c7920617574686f72697a6564206164647265737365732063616e20637281527f656174652061707065616c00000000000000000000000000000000000000000060208201529150612ac6565b60208082528101610485816131a8565b60208082527f5468657265277320612070656e64696e672061707065616c20726571756573749101908152600061292b565b6020808252810161048581613212565b602381526000602082017f41707065616c206578697374732079657420666f722070726f7669646564206881527f617368000000000000000000000000000000000000000000000000000000000060208201529150612ac6565b6020808252810161048581613254565b603581526000602082017f4d757374206861766520656e6f7567682062616c616e636520696e207661756c81527f7420746f2063726561746520616e2061707065616c000000000000000000000060208201529150612ac6565b60208082528101610485816132be565b60ff16600060fe198201612cb757612cb761289c565b6060810161334c8286612373565b61335960208301856127b9565b6123536040830184612373565b602681526000602082017f4f776e61626c653a206e6577206f776e657220697320746865207a65726f206181527f646472657373000000000000000000000000000000000000000000000000000060208201529150612ac6565b6020808252810161048581613366565b60006105fc8284613043565b60208082527f4f776e61626c653a2063616c6c6572206973206e6f7420746865206f776e65729101908152600061292b565b60208082528101610485816133dc565b601281526000602082017f696e646578206f7574206f6620626f756e6400000000000000000000000000008152915061292b565b602080825281016104858161341e565b634e487b7160e01b600052603160045260246000fd5b7f19457468657265756d205369676e6564204d6573736167653a0a0000000000008152601a0160006134aa8285613043565b91506123538284613043565b601f81526000602082017f5265656e7472616e637947756172643a207265656e7472616e742063616c6c008152915061292b565b60208082528101610485816134b6565b634e487b7160e01b600052602160045260246000fd5b601881526000602082017f45434453413a20696e76616c6964207369676e617475726500000000000000008152915061292b565b6020808252810161048581613510565b601f81526000602082017f45434453413a20696e76616c6964207369676e6174757265206c656e677468008152915061292b565b6020808252810161048581613554565b602281526000602082017f45434453413a20696e76616c6964207369676e6174757265202773272076616c81527f756500000000000000000000000000000000000000000000000000000000000060208201529150612ac6565b6020808252810161048581613598565b608081016136108287612373565b61361d60208301866123e9565b61362a6040830185612373565b613089606083018461237356fea2646970667358221220f4f31a74c4391c6c92038ef69f0a1cfc762399b5fc828f556036a27c9ca0cccd64736f6c63430008110033",
  "devdoc": {
    "kind": "dev",
    "methods": {
      "owner()": {
        "details": "Returns the address of the current owner."
      },
      "renounceOwnership()": {
        "details": "Leaves the contract without owner. It will not be possible to call `onlyOwner` functions. Can only be called by the current owner. NOTE: Renouncing ownership will leave the contract without an owner, thereby disabling any functionality that is only available to the owner."
      },
      "transferOwnership(address)": {
        "details": "Transfers ownership of the contract to a new account (`newOwner`). Can only be called by the current owner."
      }
    },
    "title": "Appeals",
    "version": 1
  },
  "userdoc": {
    "kind": "user",
    "methods": {},
    "version": 1
  },
  "storageLayout": {
    "storage": [
      {
        "astId": 817,
        "contract": "contracts/retrieve/appeals/Appeals.sol:Appeals",
        "label": "_owner",
        "offset": 0,
        "slot": "0",
        "type": "t_address"
      },
      {
        "astId": 933,
        "contract": "contracts/retrieve/appeals/Appeals.sol:Appeals",
        "label": "_status",
        "offset": 0,
        "slot": "1",
        "type": "t_uint256"
      },
      {
        "astId": 8587,
        "contract": "contracts/retrieve/appeals/Appeals.sol:Appeals",
        "label": "settings",
        "offset": 0,
        "slot": "2",
        "type": "t_contract(Settings)12526"
      },
      {
        "astId": 8590,
        "contract": "contracts/retrieve/appeals/Appeals.sol:Appeals",
        "label": "dealsStore",
        "offset": 0,
        "slot": "3",
        "type": "t_contract(Deals)10796"
      },
      {
        "astId": 8593,
        "contract": "contracts/retrieve/appeals/Appeals.sol:Appeals",
        "label": "vaultStore",
        "offset": 0,
        "slot": "4",
        "type": "t_contract(Vault)13013"
      },
      {
        "astId": 8598,
        "contract": "contracts/retrieve/appeals/Appeals.sol:Appeals",
        "label": "referees",
        "offset": 0,
        "slot": "5",
        "type": "t_mapping(t_address,t_struct(Referee)8569_storage)"
      },
      {
        "astId": 8601,
        "contract": "contracts/retrieve/appeals/Appeals.sol:Appeals",
        "label": "active_referees",
        "offset": 0,
        "slot": "6",
        "type": "t_array(t_address)dyn_storage"
      },
      {
        "astId": 8606,
        "contract": "contracts/retrieve/appeals/Appeals.sol:Appeals",
        "label": "appeals",
        "offset": 0,
        "slot": "7",
        "type": "t_mapping(t_uint256,t_struct(Appeal)8584_storage)"
      },
      {
        "astId": 8610,
        "contract": "contracts/retrieve/appeals/Appeals.sol:Appeals",
        "label": "tot_appeals",
        "offset": 0,
        "slot": "8",
        "type": "t_mapping(t_uint256,t_uint8)"
      },
      {
        "astId": 8614,
        "contract": "contracts/retrieve/appeals/Appeals.sol:Appeals",
        "label": "pending_appeals",
        "offset": 0,
        "slot": "9",
        "type": "t_mapping(t_uint256,t_uint256)"
      },
      {
        "astId": 8618,
        "contract": "contracts/retrieve/appeals/Appeals.sol:Appeals",
        "label": "active_appeals",
        "offset": 0,
        "slot": "10",
        "type": "t_mapping(t_uint256,t_uint256)"
      },
      {
        "astId": 8641,
        "contract": "contracts/retrieve/appeals/Appeals.sol:Appeals",
        "label": "appealCounter",
        "offset": 0,
        "slot": "11",
        "type": "t_struct(Counter)1506_storage"
      }
    ],
    "types": {
      "t_address": {
        "encoding": "inplace",
        "label": "address",
        "numberOfBytes": "20"
      },
      "t_array(t_address)dyn_storage": {
        "base": "t_address",
        "encoding": "dynamic_array",
        "label": "address[]",
        "numberOfBytes": "32"
      },
      "t_bool": {
        "encoding": "inplace",
        "label": "bool",
        "numberOfBytes": "1"
      },
      "t_contract(Deals)10796": {
        "encoding": "inplace",
        "label": "contract Deals",
        "numberOfBytes": "20"
      },
      "t_contract(Settings)12526": {
        "encoding": "inplace",
        "label": "contract Settings",
        "numberOfBytes": "20"
      },
      "t_contract(Vault)13013": {
        "encoding": "inplace",
        "label": "contract Vault",
        "numberOfBytes": "20"
      },
      "t_mapping(t_address,t_struct(Referee)8569_storage)": {
        "encoding": "mapping",
        "key": "t_address",
        "label": "mapping(address => struct Appeals.Referee)",
        "numberOfBytes": "32",
        "value": "t_struct(Referee)8569_storage"
      },
      "t_mapping(t_uint256,t_bool)": {
        "encoding": "mapping",
        "key": "t_uint256",
        "label": "mapping(uint256 => bool)",
        "numberOfBytes": "32",
        "value": "t_bool"
      },
      "t_mapping(t_uint256,t_struct(Appeal)8584_storage)": {
        "encoding": "mapping",
        "key": "t_uint256",
        "label": "mapping(uint256 => struct Appeals.Appeal)",
        "numberOfBytes": "32",
        "value": "t_struct(Appeal)8584_storage"
      },
      "t_mapping(t_uint256,t_uint256)": {
        "encoding": "mapping",
        "key": "t_uint256",
        "label": "mapping(uint256 => uint256)",
        "numberOfBytes": "32",
        "value": "t_uint256"
      },
      "t_mapping(t_uint256,t_uint8)": {
        "encoding": "mapping",
        "key": "t_uint256",
        "label": "mapping(uint256 => uint8)",
        "numberOfBytes": "32",
        "value": "t_uint8"
      },
      "t_string_storage": {
        "encoding": "bytes",
        "label": "string",
        "numberOfBytes": "32"
      },
      "t_struct(Appeal)8584_storage": {
        "encoding": "inplace",
        "label": "struct Appeals.Appeal",
        "members": [
          {
            "astId": 8571,
            "contract": "contracts/retrieve/appeals/Appeals.sol:Appeals",
            "label": "deal_index",
            "offset": 0,
            "slot": "0",
            "type": "t_uint256"
          },
          {
            "astId": 8573,
            "contract": "contracts/retrieve/appeals/Appeals.sol:Appeals",
            "label": "active",
            "offset": 0,
            "slot": "1",
            "type": "t_bool"
          },
          {
            "astId": 8577,
            "contract": "contracts/retrieve/appeals/Appeals.sol:Appeals",
            "label": "processed",
            "offset": 0,
            "slot": "2",
            "type": "t_mapping(t_uint256,t_bool)"
          },
          {
            "astId": 8579,
            "contract": "contracts/retrieve/appeals/Appeals.sol:Appeals",
            "label": "slashes",
            "offset": 0,
            "slot": "3",
            "type": "t_uint128"
          },
          {
            "astId": 8581,
            "contract": "contracts/retrieve/appeals/Appeals.sol:Appeals",
            "label": "request_timestamp",
            "offset": 0,
            "slot": "4",
            "type": "t_uint256"
          },
          {
            "astId": 8583,
            "contract": "contracts/retrieve/appeals/Appeals.sol:Appeals",
            "label": "origin_timestamp",
            "offset": 0,
            "slot": "5",
            "type": "t_uint256"
          }
        ],
        "numberOfBytes": "192"
      },
      "t_struct(Counter)1506_storage": {
        "encoding": "inplace",
        "label": "struct Counters.Counter",
        "members": [
          {
            "astId": 1505,
            "contract": "contracts/retrieve/appeals/Appeals.sol:Appeals",
            "label": "_value",
            "offset": 0,
            "slot": "0",
            "type": "t_uint256"
          }
        ],
        "numberOfBytes": "32"
      },
      "t_struct(Referee)8569_storage": {
        "encoding": "inplace",
        "label": "struct Appeals.Referee",
        "members": [
          {
            "astId": 8566,
            "contract": "contracts/retrieve/appeals/Appeals.sol:Appeals",
            "label": "active",
            "offset": 0,
            "slot": "0",
            "type": "t_bool"
          },
          {
            "astId": 8568,
            "contract": "contracts/retrieve/appeals/Appeals.sol:Appeals",
            "label": "endpoint",
            "offset": 0,
            "slot": "1",
            "type": "t_string_storage"
          }
        ],
        "numberOfBytes": "64"
      },
      "t_uint128": {
        "encoding": "inplace",
        "label": "uint128",
        "numberOfBytes": "16"
      },
      "t_uint256": {
        "encoding": "inplace",
        "label": "uint256",
        "numberOfBytes": "32"
      },
      "t_uint8": {
        "encoding": "inplace",
        "label": "uint8",
        "numberOfBytes": "1"
      }
    }
  }
}