{
  "address": "0x591239742B2f363e10880f74B84fDa0bd19e5F2F",
  "abi": [
    {
      "inputs": [
        {
          "internalType": "address",
          "name": "_protocol_address",
          "type": "address"
        }
      ],
      "stateMutability": "nonpayable",
      "type": "constructor"
    },
    {
      "anonymous": false,
      "inputs": [
        {
          "indexed": true,
          "internalType": "address",
          "name": "previousOwner",
          "type": "address"
        },
        {
          "indexed": true,
          "internalType": "address",
          "name": "newOwner",
          "type": "address"
        }
      ],
      "name": "OwnershipTransferred",
      "type": "event"
    },
    {
      "inputs": [
        {
          "internalType": "uint8",
          "name": "",
          "type": "uint8"
        },
        {
          "internalType": "address",
          "name": "",
          "type": "address"
        }
      ],
      "name": "admins",
      "outputs": [
        {
          "internalType": "bool",
          "name": "",
          "type": "bool"
        }
      ],
      "stateMutability": "view",
      "type": "function"
    },
    {
      "inputs": [],
      "name": "committee_divider",
      "outputs": [
        {
          "internalType": "uint8",
          "name": "",
          "type": "uint8"
        }
      ],
      "stateMutability": "view",
      "type": "function"
    },
    {
      "inputs": [],
      "name": "contract_protected",
      "outputs": [
        {
          "internalType": "bool",
          "name": "",
          "type": "bool"
        }
      ],
      "stateMutability": "view",
      "type": "function"
    },
    {
      "inputs": [],
      "name": "max_appeals",
      "outputs": [
        {
          "internalType": "uint8",
          "name": "",
          "type": "uint8"
        }
      ],
      "stateMutability": "view",
      "type": "function"
    },
    {
      "inputs": [],
      "name": "max_duration",
      "outputs": [
        {
          "internalType": "uint32",
          "name": "",
          "type": "uint32"
        }
      ],
      "stateMutability": "view",
      "type": "function"
    },
    {
      "inputs": [],
      "name": "min_deal_value",
      "outputs": [
        {
          "internalType": "uint256",
          "name": "",
          "type": "uint256"
        }
      ],
      "stateMutability": "view",
      "type": "function"
    },
    {
      "inputs": [],
      "name": "min_duration",
      "outputs": [
        {
          "internalType": "uint32",
          "name": "",
          "type": "uint32"
        }
      ],
      "stateMutability": "view",
      "type": "function"
    },
    {
      "inputs": [],
      "name": "owner",
      "outputs": [
        {
          "internalType": "address",
          "name": "",
          "type": "address"
        }
      ],
      "stateMutability": "view",
      "type": "function"
    },
    {
      "inputs": [],
      "name": "permissioned_providers",
      "outputs": [
        {
          "internalType": "bool",
          "name": "",
          "type": "bool"
        }
      ],
      "stateMutability": "view",
      "type": "function"
    },
    {
      "inputs": [],
      "name": "proposal_timeout",
      "outputs": [
        {
          "internalType": "uint32",
          "name": "",
          "type": "uint32"
        }
      ],
      "stateMutability": "view",
      "type": "function"
    },
    {
      "inputs": [],
      "name": "protocol_address",
      "outputs": [
        {
          "internalType": "address",
          "name": "",
          "type": "address"
        }
      ],
      "stateMutability": "view",
      "type": "function"
    },
    {
      "inputs": [],
      "name": "renounceOwnership",
      "outputs": [],
      "stateMutability": "nonpayable",
      "type": "function"
    },
    {
      "inputs": [],
      "name": "round_duration",
      "outputs": [
        {
          "internalType": "uint32",
          "name": "",
          "type": "uint32"
        }
      ],
      "stateMutability": "view",
      "type": "function"
    },
    {
      "inputs": [],
      "name": "rounds_limit",
      "outputs": [
        {
          "internalType": "uint8",
          "name": "",
          "type": "uint8"
        }
      ],
      "stateMutability": "view",
      "type": "function"
    },
    {
      "inputs": [
        {
          "internalType": "uint8",
          "name": "kind",
          "type": "uint8"
        },
        {
          "internalType": "bool",
          "name": "status",
          "type": "bool"
        },
        {
          "internalType": "address",
          "name": "admin",
          "type": "address"
        }
      ],
      "name": "setRole",
      "outputs": [],
      "stateMutability": "nonpayable",
      "type": "function"
    },
    {
      "inputs": [],
      "name": "slashes_threshold",
      "outputs": [
        {
          "internalType": "uint8",
          "name": "",
          "type": "uint8"
        }
      ],
      "stateMutability": "view",
      "type": "function"
    },
    {
      "inputs": [],
      "name": "slashing_multiplier",
      "outputs": [
        {
          "internalType": "uint256",
          "name": "",
          "type": "uint256"
        }
      ],
      "stateMutability": "view",
      "type": "function"
    },
    {
      "inputs": [],
      "name": "token_render",
      "outputs": [
        {
          "internalType": "contract IRENDER",
          "name": "",
          "type": "address"
        }
      ],
      "stateMutability": "view",
      "type": "function"
    },
    {
      "inputs": [
        {
          "internalType": "address",
          "name": "newOwner",
          "type": "address"
        }
      ],
      "name": "transferOwnership",
      "outputs": [],
      "stateMutability": "nonpayable",
      "type": "function"
    },
    {
      "inputs": [
        {
          "internalType": "uint8",
          "name": "kind",
          "type": "uint8"
        },
        {
          "internalType": "address",
          "name": "addy",
          "type": "address"
        },
        {
          "internalType": "bool",
          "name": "state",
          "type": "bool"
        }
      ],
      "name": "tuneProtocolVariables",
      "outputs": [],
      "stateMutability": "nonpayable",
      "type": "function"
    },
    {
      "inputs": [
        {
          "internalType": "uint8",
          "name": "kind",
          "type": "uint8"
        },
        {
          "internalType": "uint256",
          "name": "value256",
          "type": "uint256"
        },
        {
          "internalType": "uint32",
          "name": "value32",
          "type": "uint32"
        }
      ],
      "name": "tuneProvidersVariables",
      "outputs": [],
      "stateMutability": "nonpayable",
      "type": "function"
    },
    {
      "inputs": [
        {
          "internalType": "uint8",
          "name": "kind",
          "type": "uint8"
        },
        {
          "internalType": "uint8",
          "name": "value8",
          "type": "uint8"
        },
        {
          "internalType": "uint32",
          "name": "value32",
          "type": "uint32"
        }
      ],
      "name": "tuneRefereesVariables",
      "outputs": [],
      "stateMutability": "nonpayable",
      "type": "function"
    }
  ],
  "transactionHash": "0x0ae0d6ad9d38b29cc418f02328c723291d246fb44470ffc9b2a8c45d9d8e7115",
  "args": [
    "0x81A91158497A1cD700De7f6D83ee565788A9C273"
  ],
  "numDeployments": 2,
  "solcInputHash": "2e453cfa57785308548e0ed919788d06",
  "bytecode": "0x60806040526103e86002556003805465ffffffffffff1916650500015180041790556000600455600580546001600160701b0319166d0c0c01e13380000151800000012c1790556006805461ffff60a01b1916905534801561006057600080fd5b5060405162000e9238038062000e9283398101604081905261008191610163565b61008a336100de565b6001600160a01b0381166100b95760405162461bcd60e51b81526004016100b09061018c565b60405180910390fd5b600780546001600160a01b0319166001600160a01b03929092169190911790556101d3565b600080546001600160a01b038381166001600160a01b0319831681178455604051919092169283917f8be0079c531659141344cd1fd0a4f28419497f9722a3daafe3b4186f6b6457e09190a35050565b60006001600160a01b0382165b92915050565b61014a8161012e565b811461015557600080fd5b50565b805161013b81610141565b60006020828403121561017857610178600080fd5b60006101848484610158565b949350505050565b6020808252810161013b81602381527f43616e277420696e69742070726f746f636f6c207769746820626c61636b2d686020820152626f6c6560e81b604082015260600190565b610caf80620001e36000396000f3fe608060405234801561001057600080fd5b50600436106101825760003560e01c80636ea3d06f116100d8578063d1b04e9e1161008c578063f2fde38b11610066578063f2fde38b14610399578063fb2f14a4146103ac578063fce9bfea146103c157600080fd5b8063d1b04e9e14610329578063e13f8e6c14610339578063e24f68031461034f57600080fd5b80638da5cb5b116100bd5780638da5cb5b146102e1578063a6172e74146102f2578063a68986c8146102fb57600080fd5b80636ea3d06f146102c6578063715018a6146102d957600080fd5b80632f8148451161013a5780635eb8cf25116101145780635eb8cf251461026d5780636522514f146102895780636694c06c146102a657600080fd5b80632f814845146102155780632fe5861114610235578063335d4d5b1461024f57600080fd5b80630a0d8b7f1161016b5780630a0d8b7f146101ca578063258b12e7146101e057806328462c1e1461020157600080fd5b806306b2df4514610187578063092811f21461019c575b600080fd5b61019a6101953660046108c9565b6103d4565b005b6005546101b490640100000000900463ffffffff1681565b6040516101c19190610927565b60405180910390f35b6101d360045481565b6040516101c1919061093b565b6006546101f490600160a81b900460ff1681565b6040516101c19190610951565b6006546101f490600160a01b900460ff1681565b600654610228906001600160a01b031681565b6040516101c1919061097e565b6003546102429060ff1681565b6040516101c19190610995565b600554610242906d0100000000000000000000000000900460ff1681565b6005546101b49068010000000000000000900463ffffffff1681565b600554610242906c01000000000000000000000000900460ff1681565b6007546102b9906001600160a01b031681565b6040516101c191906109ac565b61019a6102d43660046109e2565b610535565b61019a610650565b6000546001600160a01b03166102b9565b6101d360025481565b6101f4610309366004610a28565b600160209081526000928352604080842090915290825290205460ff1681565b6005546101b49063ffffffff1681565b6003546102429065010000000000900460ff1681565b61019a61035d366004610a65565b60ff9290921660009081526001602090815260408083206001600160a01b03909516835293905291909120805460ff1916911515919091179055565b61019a6103a7366004610aab565b610664565b6003546101b490610100900463ffffffff1681565b61019a6103cf366004610ad4565b61069e565b6000546001600160a01b031633148061041b57503360009081527fcc69885fda6bcc1a4ace058b4a62bf5e179ea78fd58a1ccd71c22cc9b688792f602052604090205460ff165b6104405760405162461bcd60e51b815260040161043790610b40565b60405180910390fd5b8260ff16600003610478576006805473ffffffffffffffffffffffffffffffffffffffff19166001600160a01b038416179055505050565b8260ff166001036104b0576007805473ffffffffffffffffffffffffffffffffffffffff19166001600160a01b038416179055505050565b8260ff166002036104f257600680547fffffffffffffffffffffff00ffffffffffffffffffffffffffffffffffffffff16600160a01b83151502179055505050565b8260ff1660030361053057600680547fffffffffffffffffffff00ffffffffffffffffffffffffffffffffffffffffff16600160a81b831515021790555b505050565b6000546001600160a01b031633148061057c57503360009081527f7dfe757ecd65cbd7922a9c0161e935dd7fdbcc0e999689c7d31633896b1fc60b602052604090205460ff165b6105985760405162461bcd60e51b815260040161043790610b82565b8260ff166000036105c2576003805464ffffffff00191661010063ffffffff841602179055505050565b8260ff166001036105d4575060045550565b8260ff166002036105e6575060025550565b8260ff16600303610616576005805467ffffffff00000000191664010000000063ffffffff841602179055505050565b8260ff16600403610530576005805463ffffffff831668010000000000000000026bffffffff000000000000000019909116179055505050565b6106586107e9565b6106626000610813565b565b61066c6107e9565b6001600160a01b0381166106925760405162461bcd60e51b815260040161043790610b92565b61069b81610813565b50565b6000546001600160a01b03163314806106e557503360009081527fd9d16d34ffb15ba3a3d852f0d403e2ce1d691fb54de27ac87cd2f993f3ec330f602052604090205460ff165b6107015760405162461bcd60e51b815260040161043790610c27565b8260ff16600003610720576003805460ff191660ff8416179055505050565b8260ff1660010361074c576003805465ff000000000019166501000000000060ff851602179055505050565b8260ff16600203610771576005805463ffffffff191663ffffffff8316179055505050565b8260ff166003036107ad57600580546dff0000000000000000000000000019166d010000000000000000000000000060ff851602179055505050565b8260ff16600403610530576005805460ff84166c01000000000000000000000000026cff00000000000000000000000019909116179055505050565b6000546001600160a01b031633146106625760405162461bcd60e51b815260040161043790610c69565b600080546001600160a01b0383811673ffffffffffffffffffffffffffffffffffffffff19831681178455604051919092169283917f8be0079c531659141344cd1fd0a4f28419497f9722a3daafe3b4186f6b6457e09190a35050565b60ff81165b811461069b57600080fd5b803561088b81610870565b92915050565b60006001600160a01b03821661088b565b61087581610891565b803561088b816108a2565b801515610875565b803561088b816108b6565b6000806000606084860312156108e1576108e1600080fd5b60006108ed8686610880565b93505060206108fe868287016108ab565b925050604061090f868287016108be565b9150509250925092565b63ffffffff81165b82525050565b6020810161088b8284610919565b80610921565b6020810161088b8284610935565b801515610921565b6020810161088b8284610949565b600061088b82610891565b600061088b8261095f565b6109218161096a565b6020810161088b8284610975565b60ff8116610921565b6020810161088b828461098c565b61092181610891565b6020810161088b82846109a3565b80610875565b803561088b816109ba565b63ffffffff8116610875565b803561088b816109cb565b6000806000606084860312156109fa576109fa600080fd5b6000610a068686610880565b9350506020610a17868287016109c0565b925050604061090f868287016109d7565b60008060408385031215610a3e57610a3e600080fd5b6000610a4a8585610880565b9250506020610a5b858286016108ab565b9150509250929050565b600080600060608486031215610a7d57610a7d600080fd5b6000610a898686610880565b9350506020610a9a868287016108be565b925050604061090f868287016108ab565b600060208284031215610ac057610ac0600080fd5b6000610acc84846108ab565b949350505050565b600080600060608486031215610aec57610aec600080fd5b6000610af88686610880565b9350506020610a1786828701610880565b601f81526000602082017f43616e2774206d616e6167652070726f746f636f6c207661726961626c657300815291505b5060200190565b6020808252810161088b81610b09565b60208082527f43616e2774206d616e6167652070726f766964657273207661726961626c657391019081526000610b39565b6020808252810161088b81610b50565b6020808252810161088b81602681527f4f776e61626c653a206e6577206f776e657220697320746865207a65726f206160208201527f6464726573730000000000000000000000000000000000000000000000000000604082015260600190565b601f81526000602082017f43616e2774206d616e616765207265666572656573207661726961626c65730081529150610b39565b6020808252810161088b81610bf3565b60208082527f4f776e61626c653a2063616c6c6572206973206e6f7420746865206f776e657291019081526000610b39565b6020808252810161088b81610c3756fea2646970667358221220bbbabeff6aca2fbe5f8c18cdef84126c95fe4592c30e8b4bdde3152a26ac64a864736f6c63430008110033",
  "devdoc": {
    "kind": "dev",
    "methods": {
      "owner()": {
        "details": "Returns the address of the current owner."
      },
      "renounceOwnership()": {
        "details": "Leaves the contract without owner. It will not be possible to call `onlyOwner` functions. Can only be called by the current owner. NOTE: Renouncing ownership will leave the contract without an owner, thereby disabling any functionality that is only available to the owner."
      },
      "transferOwnership(address)": {
        "details": "Transfers ownership of the contract to a new account (`newOwner`). Can only be called by the current owner."
      }
    },
    "title": "Settings for retrieval protocol adapted from retriev",
    "version": 1
  },
  "userdoc": {
    "kind": "user",
    "methods": {},
    "version": 1
  },
  "storageLayout": {
    "storage": [
      {
        "astId": 817,
        "contract": "contracts/retrieve/settings/Settings.sol:Settings",
        "label": "_owner",
        "offset": 0,
        "slot": "0",
        "type": "t_address"
      },
      {
        "astId": 12084,
        "contract": "contracts/retrieve/settings/Settings.sol:Settings",
        "label": "admins",
        "offset": 0,
        "slot": "1",
        "type": "t_mapping(t_uint8,t_mapping(t_address,t_bool))"
      },
      {
        "astId": 12087,
        "contract": "contracts/retrieve/settings/Settings.sol:Settings",
        "label": "slashing_multiplier",
        "offset": 0,
        "slot": "2",
        "type": "t_uint256"
      },
      {
        "astId": 12090,
        "contract": "contracts/retrieve/settings/Settings.sol:Settings",
        "label": "committee_divider",
        "offset": 0,
        "slot": "3",
        "type": "t_uint8"
      },
      {
        "astId": 12093,
        "contract": "contracts/retrieve/settings/Settings.sol:Settings",
        "label": "proposal_timeout",
        "offset": 1,
        "slot": "3",
        "type": "t_uint32"
      },
      {
        "astId": 12096,
        "contract": "contracts/retrieve/settings/Settings.sol:Settings",
        "label": "max_appeals",
        "offset": 5,
        "slot": "3",
        "type": "t_uint8"
      },
      {
        "astId": 12099,
        "contract": "contracts/retrieve/settings/Settings.sol:Settings",
        "label": "min_deal_value",
        "offset": 0,
        "slot": "4",
        "type": "t_uint256"
      },
      {
        "astId": 12102,
        "contract": "contracts/retrieve/settings/Settings.sol:Settings",
        "label": "round_duration",
        "offset": 0,
        "slot": "5",
        "type": "t_uint32"
      },
      {
        "astId": 12105,
        "contract": "contracts/retrieve/settings/Settings.sol:Settings",
        "label": "min_duration",
        "offset": 4,
        "slot": "5",
        "type": "t_uint32"
      },
      {
        "astId": 12108,
        "contract": "contracts/retrieve/settings/Settings.sol:Settings",
        "label": "max_duration",
        "offset": 8,
        "slot": "5",
        "type": "t_uint32"
      },
      {
        "astId": 12111,
        "contract": "contracts/retrieve/settings/Settings.sol:Settings",
        "label": "slashes_threshold",
        "offset": 12,
        "slot": "5",
        "type": "t_uint8"
      },
      {
        "astId": 12114,
        "contract": "contracts/retrieve/settings/Settings.sol:Settings",
        "label": "rounds_limit",
        "offset": 13,
        "slot": "5",
        "type": "t_uint8"
      },
      {
        "astId": 12117,
        "contract": "contracts/retrieve/settings/Settings.sol:Settings",
        "label": "token_render",
        "offset": 0,
        "slot": "6",
        "type": "t_contract(IRENDER)10816"
      },
      {
        "astId": 12120,
        "contract": "contracts/retrieve/settings/Settings.sol:Settings",
        "label": "contract_protected",
        "offset": 20,
        "slot": "6",
        "type": "t_bool"
      },
      {
        "astId": 12123,
        "contract": "contracts/retrieve/settings/Settings.sol:Settings",
        "label": "permissioned_providers",
        "offset": 21,
        "slot": "6",
        "type": "t_bool"
      },
      {
        "astId": 12125,
        "contract": "contracts/retrieve/settings/Settings.sol:Settings",
        "label": "protocol_address",
        "offset": 0,
        "slot": "7",
        "type": "t_address"
      }
    ],
    "types": {
      "t_address": {
        "encoding": "inplace",
        "label": "address",
        "numberOfBytes": "20"
      },
      "t_bool": {
        "encoding": "inplace",
        "label": "bool",
        "numberOfBytes": "1"
      },
      "t_contract(IRENDER)10816": {
        "encoding": "inplace",
        "label": "contract IRENDER",
        "numberOfBytes": "20"
      },
      "t_mapping(t_address,t_bool)": {
        "encoding": "mapping",
        "key": "t_address",
        "label": "mapping(address => bool)",
        "numberOfBytes": "32",
        "value": "t_bool"
      },
      "t_mapping(t_uint8,t_mapping(t_address,t_bool))": {
        "encoding": "mapping",
        "key": "t_uint8",
        "label": "mapping(uint8 => mapping(address => bool))",
        "numberOfBytes": "32",
        "value": "t_mapping(t_address,t_bool)"
      },
      "t_uint256": {
        "encoding": "inplace",
        "label": "uint256",
        "numberOfBytes": "32"
      },
      "t_uint32": {
        "encoding": "inplace",
        "label": "uint32",
        "numberOfBytes": "4"
      },
      "t_uint8": {
        "encoding": "inplace",
        "label": "uint8",
        "numberOfBytes": "1"
      }
    }
  }
}