{
  "address": "0x1454e343dB91a6Aad1Df60F5845049AdDf439C5E",
  "abi": [
    {
      "inputs": [
        {
          "internalType": "contract Settings",
          "name": "_settings_address",
          "type": "address"
        }
      ],
      "stateMutability": "nonpayable",
      "type": "constructor"
    },
    {
      "anonymous": false,
      "inputs": [
        {
          "indexed": true,
          "internalType": "bytes32",
          "name": "role",
          "type": "bytes32"
        },
        {
          "indexed": true,
          "internalType": "bytes32",
          "name": "previousAdminRole",
          "type": "bytes32"
        },
        {
          "indexed": true,
          "internalType": "bytes32",
          "name": "newAdminRole",
          "type": "bytes32"
        }
      ],
      "name": "RoleAdminChanged",
      "type": "event"
    },
    {
      "anonymous": false,
      "inputs": [
        {
          "indexed": true,
          "internalType": "bytes32",
          "name": "role",
          "type": "bytes32"
        },
        {
          "indexed": true,
          "internalType": "address",
          "name": "account",
          "type": "address"
        },
        {
          "indexed": true,
          "internalType": "address",
          "name": "sender",
          "type": "address"
        }
      ],
      "name": "RoleGranted",
      "type": "event"
    },
    {
      "anonymous": false,
      "inputs": [
        {
          "indexed": true,
          "internalType": "bytes32",
          "name": "role",
          "type": "bytes32"
        },
        {
          "indexed": true,
          "internalType": "address",
          "name": "account",
          "type": "address"
        },
        {
          "indexed": true,
          "internalType": "address",
          "name": "sender",
          "type": "address"
        }
      ],
      "name": "RoleRevoked",
      "type": "event"
    },
    {
      "inputs": [],
      "name": "ADMIN_ROLE",
      "outputs": [
        {
          "internalType": "bytes32",
          "name": "",
          "type": "bytes32"
        }
      ],
      "stateMutability": "view",
      "type": "function"
    },
    {
      "inputs": [],
      "name": "APPEALS_ROLE",
      "outputs": [
        {
          "internalType": "bytes32",
          "name": "",
          "type": "bytes32"
        }
      ],
      "stateMutability": "view",
      "type": "function"
    },
    {
      "inputs": [],
      "name": "DEALS_ROLE",
      "outputs": [
        {
          "internalType": "bytes32",
          "name": "",
          "type": "bytes32"
        }
      ],
      "stateMutability": "view",
      "type": "function"
    },
    {
      "inputs": [],
      "name": "DEFAULT_ADMIN_ROLE",
      "outputs": [
        {
          "internalType": "bytes32",
          "name": "",
          "type": "bytes32"
        }
      ],
      "stateMutability": "view",
      "type": "function"
    },
    {
      "inputs": [],
      "name": "PROVIDERS_ROLE",
      "outputs": [
        {
          "internalType": "bytes32",
          "name": "",
          "type": "bytes32"
        }
      ],
      "stateMutability": "view",
      "type": "function"
    },
    {
      "inputs": [
        {
          "internalType": "address",
          "name": "_address",
          "type": "address"
        },
        {
          "internalType": "uint256",
          "name": "_value",
          "type": "uint256"
        }
      ],
      "name": "add",
      "outputs": [],
      "stateMutability": "nonpayable",
      "type": "function"
    },
    {
      "inputs": [
        {
          "internalType": "uint256",
          "name": "_value",
          "type": "uint256"
        }
      ],
      "name": "addToProtocol",
      "outputs": [],
      "stateMutability": "nonpayable",
      "type": "function"
    },
    {
      "inputs": [
        {
          "internalType": "uint256",
          "name": "_value",
          "type": "uint256"
        }
      ],
      "name": "addToVault",
      "outputs": [],
      "stateMutability": "nonpayable",
      "type": "function"
    },
    {
      "inputs": [],
      "name": "depositToVault",
      "outputs": [],
      "stateMutability": "payable",
      "type": "function"
    },
    {
      "inputs": [
        {
          "internalType": "address",
          "name": "_address",
          "type": "address"
        }
      ],
      "name": "getBalance",
      "outputs": [
        {
          "internalType": "uint256",
          "name": "",
          "type": "uint256"
        }
      ],
      "stateMutability": "view",
      "type": "function"
    },
    {
      "inputs": [],
      "name": "getProtocolBalance",
      "outputs": [
        {
          "internalType": "uint256",
          "name": "",
          "type": "uint256"
        }
      ],
      "stateMutability": "view",
      "type": "function"
    },
    {
      "inputs": [
        {
          "internalType": "bytes32",
          "name": "role",
          "type": "bytes32"
        }
      ],
      "name": "getRoleAdmin",
      "outputs": [
        {
          "internalType": "bytes32",
          "name": "",
          "type": "bytes32"
        }
      ],
      "stateMutability": "view",
      "type": "function"
    },
    {
      "inputs": [
        {
          "internalType": "bytes32",
          "name": "role",
          "type": "bytes32"
        },
        {
          "internalType": "address",
          "name": "account",
          "type": "address"
        }
      ],
      "name": "grantRole",
      "outputs": [],
      "stateMutability": "nonpayable",
      "type": "function"
    },
    {
      "inputs": [
        {
          "internalType": "bytes32",
          "name": "role",
          "type": "bytes32"
        },
        {
          "internalType": "address",
          "name": "account",
          "type": "address"
        }
      ],
      "name": "hasRole",
      "outputs": [
        {
          "internalType": "bool",
          "name": "",
          "type": "bool"
        }
      ],
      "stateMutability": "view",
      "type": "function"
    },
    {
      "inputs": [
        {
          "internalType": "bytes32",
          "name": "role",
          "type": "bytes32"
        },
        {
          "internalType": "address",
          "name": "account",
          "type": "address"
        }
      ],
      "name": "renounceRole",
      "outputs": [],
      "stateMutability": "nonpayable",
      "type": "function"
    },
    {
      "inputs": [
        {
          "internalType": "bytes32",
          "name": "role",
          "type": "bytes32"
        },
        {
          "internalType": "address",
          "name": "account",
          "type": "address"
        }
      ],
      "name": "revokeRole",
      "outputs": [],
      "stateMutability": "nonpayable",
      "type": "function"
    },
    {
      "inputs": [
        {
          "internalType": "address",
          "name": "_address",
          "type": "address"
        }
      ],
      "name": "setAppealsRole",
      "outputs": [],
      "stateMutability": "nonpayable",
      "type": "function"
    },
    {
      "inputs": [
        {
          "internalType": "address",
          "name": "_address",
          "type": "address"
        }
      ],
      "name": "setDealsRole",
      "outputs": [],
      "stateMutability": "nonpayable",
      "type": "function"
    },
    {
      "inputs": [
        {
          "internalType": "address",
          "name": "_address",
          "type": "address"
        }
      ],
      "name": "setProvidersRole",
      "outputs": [],
      "stateMutability": "nonpayable",
      "type": "function"
    },
    {
      "inputs": [
        {
          "internalType": "address",
          "name": "_address",
          "type": "address"
        },
        {
          "internalType": "uint256",
          "name": "_value",
          "type": "uint256"
        }
      ],
      "name": "setValue",
      "outputs": [],
      "stateMutability": "nonpayable",
      "type": "function"
    },
    {
      "inputs": [
        {
          "internalType": "address",
          "name": "_address",
          "type": "address"
        },
        {
          "internalType": "uint256",
          "name": "_value",
          "type": "uint256"
        }
      ],
      "name": "sub",
      "outputs": [],
      "stateMutability": "nonpayable",
      "type": "function"
    },
    {
      "inputs": [
        {
          "internalType": "uint256",
          "name": "_value",
          "type": "uint256"
        }
      ],
      "name": "subFromVault",
      "outputs": [],
      "stateMutability": "nonpayable",
      "type": "function"
    },
    {
      "inputs": [
        {
          "internalType": "bytes4",
          "name": "interfaceId",
          "type": "bytes4"
        }
      ],
      "name": "supportsInterface",
      "outputs": [
        {
          "internalType": "bool",
          "name": "",
          "type": "bool"
        }
      ],
      "stateMutability": "view",
      "type": "function"
    },
    {
      "inputs": [
        {
          "internalType": "uint256",
          "name": "amount",
          "type": "uint256"
        }
      ],
      "name": "transferProtocolBalance",
      "outputs": [],
      "stateMutability": "nonpayable",
      "type": "function"
    },
    {
      "inputs": [
        {
          "internalType": "address",
          "name": "",
          "type": "address"
        }
      ],
      "name": "vault",
      "outputs": [
        {
          "internalType": "uint256",
          "name": "",
          "type": "uint256"
        }
      ],
      "stateMutability": "view",
      "type": "function"
    },
    {
      "inputs": [
        {
          "internalType": "uint256",
          "name": "amount",
          "type": "uint256"
        }
      ],
      "name": "withdrawFromVault",
      "outputs": [],
      "stateMutability": "nonpayable",
      "type": "function"
    }
  ],
  "transactionHash": "0xdde53838083dc2dedd797f599cdeda989cf72005ceb1cdee7a1b6684db824618",
  "args": [
    "0x591239742B2f363e10880f74B84fDa0bd19e5F2F"
  ],
  "numDeployments": 3,
  "solcInputHash": "2e453cfa57785308548e0ed919788d06",
  "bytecode": "0x60806040523480156200001157600080fd5b5060405162001c6838038062001c6883398101604081905262000034916200016d565b6001600055620000657fa49807205ce4d355092ef5a8a18f56e8913cf4a201fbe287825b095693c21775336200008b565b600380546001600160a01b0319166001600160a01b03929092169190911790556200019a565b620000978282620000fa565b620000f65760008281526001602081815260408084206001600160a01b0386168086529252808420805460ff19169093179092559051339285917f2f8788117e7eff1d82e926ec794901d17c78024a50270940304540a733656f0d9190a45b5050565b60008281526001602090815260408083206001600160a01b038516845290915290205460ff165b92915050565b60006001600160a01b03821662000121565b6000620001218262000127565b620001518162000139565b81146200015d57600080fd5b50565b8051620001218162000146565b600060208284031215620001845762000184600080fd5b600062000192848462000160565b949350505050565b611abe80620001aa6000396000f3fe6080604052600436106101a15760003560e01c806375b238fc116100e1578063ac7ffbb71161008a578063f33e225211610064578063f33e2252146104e4578063f5d82b6b14610504578063f815c03d14610524578063f8b2cb4f1461055157600080fd5b8063ac7ffbb714610484578063d547741f146104a4578063e7b4315f146104c457600080fd5b806398c991b3116100bb57806398c991b31461041b5780639c7a46ad1461043b578063a217fddf1461046f57600080fd5b806375b238fc1461038157806378cbff54146103b557806391d14854146103d557600080fd5b806336568abe1161014e5780634444ccae116101285780634444ccae1461030557806348461b561461030d5780637041ee751461032d578063752086f01461036157600080fd5b806336568abe146102915780633691a9e2146102b1578063423f8eb9146102d157600080fd5b8063248a9ca31161017f578063248a9ca31461022057806326ffee08146102515780632f2ff15d1461027157600080fd5b806301ffc9a7146101a6578063076d0815146101dc57806314e7c922146101fe575b600080fd5b3480156101b257600080fd5b506101c66101c136600461154e565b610587565b6040516101d39190611581565b60405180910390f35b3480156101e857600080fd5b506101fc6101f73660046115a0565b610620565b005b34801561020a57600080fd5b5061021361070c565b6040516101d391906115c7565b34801561022c57600080fd5b5061021361023b3660046115a0565b6000908152600160208190526040909120015490565b34801561025d57600080fd5b506101fc61026c3660046115fa565b6107af565b34801561027d57600080fd5b506101fc61028c366004611637565b6108a0565b34801561029d57600080fd5b506101fc6102ac366004611637565b6108cb565b3480156102bd57600080fd5b506101fc6102cc3660046115a0565b610901565b3480156102dd57600080fd5b506102137f6f303e5d99a797b2cefa97a758225e78ea8e52098d31c72b8cc6dc7b82e7821081565b6101fc6109e8565b34801561031957600080fd5b506101fc6103283660046115fa565b610a3b565b34801561033957600080fd5b506102137fb16f7460d04a2c34afa257e83d3490b91caa450e7af05fad7bddf0cc851a677181565b34801561036d57600080fd5b506101fc61037c36600461166a565b610b17565b34801561038d57600080fd5b506102137fa49807205ce4d355092ef5a8a18f56e8913cf4a201fbe287825b095693c2177581565b3480156103c157600080fd5b506101fc6103d03660046115a0565b610b8f565b3480156103e157600080fd5b506101c66103f0366004611637565b60009182526001602090815260408084206001600160a01b0393909316845291905290205460ff1690565b34801561042757600080fd5b506101fc6104363660046115a0565b610d50565b34801561044757600080fd5b506102137f51f57cbb3e94f77825a300c48dc80ba0f416227d0be26b31e1030bc9eb66882981565b34801561047b57600080fd5b50610213600081565b34801561049057600080fd5b506101fc61049f36600461166a565b610ebb565b3480156104b057600080fd5b506101fc6104bf366004611637565b610f33565b3480156104d057600080fd5b506101fc6104df36600461166a565b610f59565b3480156104f057600080fd5b506101fc6104ff3660046115a0565b610fd1565b34801561051057600080fd5b506101fc61051f3660046115fa565b6110b0565b34801561053057600080fd5b5061021361053f36600461166a565b60026020526000908152604090205481565b34801561055d57600080fd5b5061021361056c36600461166a565b6001600160a01b031660009081526002602052604090205490565b60007fffffffff0000000000000000000000000000000000000000000000000000000082167f7965db0b00000000000000000000000000000000000000000000000000000000148061061a57507f01ffc9a7000000000000000000000000000000000000000000000000000000007fffffffff000000000000000000000000000000000000000000000000000000008316145b92915050565b610628611198565b33600090815260026020526040902054818110156106615760405162461bcd60e51b8152600401610658906116c2565b60405180910390fd5b33600090815260026020526040812080548492906106809084906116e8565b909155505060405160009033908490610698906116fb565b60006040518083038185875af1925050503d80600081146106d5576040519150601f19603f3d011682016040523d82523d6000602084013e6106da565b606091505b505080915050806106fd5760405162461bcd60e51b815260040161065890611737565b50506107096001600055565b50565b600060026000600360009054906101000a90046001600160a01b03166001600160a01b0316636694c06c6040518163ffffffff1660e01b8152600401602060405180830381865afa158015610765573d6000803e3d6000fd5b505050506040513d601f19601f820116820180604052508101906107899190611752565b6001600160a01b03166001600160a01b0316815260200190815260200160002054905090565b3360009081527fac9c2da00bca14d6f17eab721b8402a679491611e77b0bf58115d2828bca5b2c602052604090205460ff168061081a57503360009081527f3604b56a4f593c3daecb45a60ea72ca4de6ff0cd2f0d1d530343b6666d8ecff8602052604090205460ff165b8061085357503360009081527f9a6362199b32129f7b83310641f11b8ac865dd3750b100a28c6c45889c433f50602052604090205460ff165b61086f5760405162461bcd60e51b8152600401610658906117a7565b6001600160a01b038216600090815260026020526040812080548392906108979084906116e8565b90915550505050565b600082815260016020819052604090912001546108bc816111c1565b6108c683836111cb565b505050565b6001600160a01b03811633146108f35760405162461bcd60e51b8152600401610658906117b7565b6108fd8282611252565b5050565b3360009081527fac9c2da00bca14d6f17eab721b8402a679491611e77b0bf58115d2828bca5b2c602052604090205460ff168061096c57503360009081527f3604b56a4f593c3daecb45a60ea72ca4de6ff0cd2f0d1d530343b6666d8ecff8602052604090205460ff165b806109a557503360009081527f9a6362199b32129f7b83310641f11b8ac865dd3750b100a28c6c45889c433f50602052604090205460ff165b6109c15760405162461bcd60e51b8152600401610658906117a7565b30600090815260026020526040812080548392906109e0908490611818565b909155505050565b6109f0611198565b60003411610a105760405162461bcd60e51b81526004016106589061185f565b3360009081526002602052604081208054349290610a2f908490611818565b90915550506001600055565b3360009081527fac9c2da00bca14d6f17eab721b8402a679491611e77b0bf58115d2828bca5b2c602052604090205460ff1680610aa657503360009081527f3604b56a4f593c3daecb45a60ea72ca4de6ff0cd2f0d1d530343b6666d8ecff8602052604090205460ff165b80610adf57503360009081527f9a6362199b32129f7b83310641f11b8ac865dd3750b100a28c6c45889c433f50602052604090205460ff165b610afb5760405162461bcd60e51b8152600401610658906117a7565b6001600160a01b03909116600090815260026020526040902055565b3360009081527f50efbde2d46c37e9785f1791697f77e94bb7b701e19f1930a668820722d37694602052604090205460ff16610b655760405162461bcd60e51b8152600401610658906118a3565b6107097f6f303e5d99a797b2cefa97a758225e78ea8e52098d31c72b8cc6dc7b82e78210826111cb565b610b97611198565b3360009081527f50efbde2d46c37e9785f1791697f77e94bb7b701e19f1930a668820722d37694602052604090205460ff16610be55760405162461bcd60e51b8152600401610658906117a7565b600060026000600360009054906101000a90046001600160a01b03166001600160a01b0316636694c06c6040518163ffffffff1660e01b8152600401602060405180830381865afa158015610c3e573d6000803e3d6000fd5b505050506040513d601f19601f82011682018060405250810190610c629190611752565b6001600160a01b03166001600160a01b0316815260200190815260200160002054905081811015610ca55760405162461bcd60e51b8152600401610658906116c2565b8160026000600360009054906101000a90046001600160a01b03166001600160a01b0316636694c06c6040518163ffffffff1660e01b8152600401602060405180830381865afa158015610cfd573d6000803e3d6000fd5b505050506040513d601f19601f82011682018060405250810190610d219190611752565b6001600160a01b03166001600160a01b03168152602001908152602001600020600082825461068091906116e8565b3360009081527fac9c2da00bca14d6f17eab721b8402a679491611e77b0bf58115d2828bca5b2c602052604090205460ff1680610dbb57503360009081527f3604b56a4f593c3daecb45a60ea72ca4de6ff0cd2f0d1d530343b6666d8ecff8602052604090205460ff165b80610df457503360009081527f9a6362199b32129f7b83310641f11b8ac865dd3750b100a28c6c45889c433f50602052604090205460ff165b610e105760405162461bcd60e51b8152600401610658906117a7565b8060026000600360009054906101000a90046001600160a01b03166001600160a01b0316636694c06c6040518163ffffffff1660e01b8152600401602060405180830381865afa158015610e68573d6000803e3d6000fd5b505050506040513d601f19601f82011682018060405250810190610e8c9190611752565b6001600160a01b03166001600160a01b0316815260200190815260200160002060008282546109e09190611818565b3360009081527f50efbde2d46c37e9785f1791697f77e94bb7b701e19f1930a668820722d37694602052604090205460ff16610f095760405162461bcd60e51b8152600401610658906118a3565b6107097fb16f7460d04a2c34afa257e83d3490b91caa450e7af05fad7bddf0cc851a6771826111cb565b60008281526001602081905260409091200154610f4f816111c1565b6108c68383611252565b3360009081527f50efbde2d46c37e9785f1791697f77e94bb7b701e19f1930a668820722d37694602052604090205460ff16610fa75760405162461bcd60e51b8152600401610658906118a3565b6107097f51f57cbb3e94f77825a300c48dc80ba0f416227d0be26b31e1030bc9eb668829826111cb565b3360009081527fac9c2da00bca14d6f17eab721b8402a679491611e77b0bf58115d2828bca5b2c602052604090205460ff168061103c57503360009081527f3604b56a4f593c3daecb45a60ea72ca4de6ff0cd2f0d1d530343b6666d8ecff8602052604090205460ff165b8061107557503360009081527f9a6362199b32129f7b83310641f11b8ac865dd3750b100a28c6c45889c433f50602052604090205460ff165b6110915760405162461bcd60e51b8152600401610658906117a7565b30600090815260026020526040812080548392906109e09084906116e8565b3360009081527fac9c2da00bca14d6f17eab721b8402a679491611e77b0bf58115d2828bca5b2c602052604090205460ff168061111b57503360009081527f3604b56a4f593c3daecb45a60ea72ca4de6ff0cd2f0d1d530343b6666d8ecff8602052604090205460ff165b8061115457503360009081527f9a6362199b32129f7b83310641f11b8ac865dd3750b100a28c6c45889c433f50602052604090205460ff165b6111705760405162461bcd60e51b8152600401610658906117a7565b6001600160a01b03821660009081526002602052604081208054839290610897908490611818565b6002600054036111ba5760405162461bcd60e51b8152600401610658906118e7565b6002600055565b61070981336112d5565b60008281526001602090815260408083206001600160a01b038516845290915290205460ff166108fd5760008281526001602081815260408084206001600160a01b0386168086529252808420805460ff19169093179092559051339285917f2f8788117e7eff1d82e926ec794901d17c78024a50270940304540a733656f0d9190a45050565b60008281526001602090815260408083206001600160a01b038516845290915290205460ff16156108fd5760008281526001602090815260408083206001600160a01b0385168085529252808320805460ff1916905551339285917ff6391f5c32d9c69d2a47ea670b442974b53935d1edc7fd64eb21e047a839171b9190a45050565b60008281526001602090815260408083206001600160a01b038516845290915290205460ff166108fd576113088161134a565b61131383602061135c565b60405160200161132492919061193d565b60408051601f198184030181529082905262461bcd60e51b8252610658916004016119d3565b606061061a6001600160a01b03831660145b6060600061136b8360026119e4565b611376906002611818565b67ffffffffffffffff81111561138e5761138e611a03565b6040519080825280601f01601f1916602001820160405280156113b8576020820181803683370190505b5090507f3000000000000000000000000000000000000000000000000000000000000000816000815181106113ef576113ef611a19565b60200101906001600160f81b031916908160001a9053507f78000000000000000000000000000000000000000000000000000000000000008160018151811061143a5761143a611a19565b60200101906001600160f81b031916908160001a905350600061145e8460026119e4565b611469906001611818565b90505b60018111156114ee577f303132333435363738396162636465660000000000000000000000000000000085600f16601081106114aa576114aa611a19565b1a60f81b8282815181106114c0576114c0611a19565b60200101906001600160f81b031916908160001a90535060049490941c936114e781611a2f565b905061146c565b50831561150d5760405162461bcd60e51b815260040161065890611a78565b9392505050565b7fffffffff0000000000000000000000000000000000000000000000000000000081165b811461070957600080fd5b803561061a81611514565b60006020828403121561156357611563600080fd5b600061156f8484611543565b949350505050565b8015155b82525050565b6020810161061a8284611577565b80611538565b803561061a8161158f565b6000602082840312156115b5576115b5600080fd5b600061156f8484611595565b8061157b565b6020810161061a82846115c1565b60006001600160a01b03821661061a565b611538816115d5565b803561061a816115e6565b6000806040838503121561161057611610600080fd5b600061161c85856115ef565b925050602061162d85828601611595565b9150509250929050565b6000806040838503121561164d5761164d600080fd5b60006116598585611595565b925050602061162d858286016115ef565b60006020828403121561167f5761167f600080fd5b600061156f84846115ef565b601e81526000602082017f4e6f7420656e6f7567682062616c616e636520746f2077697468647261770000815291505b5060200190565b6020808252810161061a8161168b565b634e487b7160e01b600052601160045260246000fd5b8181038181111561061a5761061a6116d2565b60008161061a565b601781526000602082017f576974686472617720746f2075736572206661696c6564000000000000000000815291506116bb565b6020808252810161061a81611703565b805161061a816115e6565b60006020828403121561176757611767600080fd5b600061156f8484611747565b601881526000602082017f43616c6c6572206973206e6f7420617574686f72697a65640000000000000000815291506116bb565b6020808252810161061a81611773565b6020808252810161061a81602f81527f416363657373436f6e74726f6c3a2063616e206f6e6c792072656e6f756e636560208201527f20726f6c657320666f722073656c660000000000000000000000000000000000604082015260600190565b8082018082111561061a5761061a6116d2565b601481526000602082017f4d7573742073656e6420736f6d652076616c7565000000000000000000000000815291506116bb565b6020808252810161061a8161182b565b601681526000602082017f43616c6c6572206973206e6f7420616e2061646d696e00000000000000000000815291506116bb565b6020808252810161061a8161186f565b601f81526000602082017f5265656e7472616e637947756172643a207265656e7472616e742063616c6c00815291506116bb565b6020808252810161061a816118b3565b60005b838110156119125781810151838201526020016118fa565b50506000910152565b6000611925825190565b6119338185602086016118f7565b9290920192915050565b7f416363657373436f6e74726f6c3a206163636f756e74200000000000000000008152601701600061196f828561191b565b7f206973206d697373696e6720726f6c65200000000000000000000000000000008152601101915061156f828461191b565b60006119ab825190565b8084526020840193506119c28185602086016118f7565b601f01601f19169290920192915050565b6020808252810161150d81846119a1565b8181028082158382048514176119fc576119fc6116d2565b5092915050565b634e487b7160e01b600052604160045260246000fd5b634e487b7160e01b600052603260045260246000fd5b600081611a3e57611a3e6116d2565b506000190190565b60208082527f537472696e67733a20686578206c656e67746820696e73756666696369656e74910190815260006116bb565b6020808252810161061a81611a4656fea26469706673582212207fb784b3e158c696c69940728cbe5e47eb8dd8d5d3bdff5c73be74db406a32af64736f6c63430008110033",
  "devdoc": {
    "kind": "dev",
    "methods": {
      "getRoleAdmin(bytes32)": {
        "details": "Returns the admin role that controls `role`. See {grantRole} and {revokeRole}. To change a role's admin, use {_setRoleAdmin}."
      },
      "grantRole(bytes32,address)": {
        "details": "Grants `role` to `account`. If `account` had not been already granted `role`, emits a {RoleGranted} event. Requirements: - the caller must have ``role``'s admin role. May emit a {RoleGranted} event."
      },
      "hasRole(bytes32,address)": {
        "details": "Returns `true` if `account` has been granted `role`."
      },
      "renounceRole(bytes32,address)": {
        "details": "Revokes `role` from the calling account. Roles are often managed via {grantRole} and {revokeRole}: this function's purpose is to provide a mechanism for accounts to lose their privileges if they are compromised (such as when a trusted device is misplaced). If the calling account had been revoked `role`, emits a {RoleRevoked} event. Requirements: - the caller must be `account`. May emit a {RoleRevoked} event."
      },
      "revokeRole(bytes32,address)": {
        "details": "Revokes `role` from `account`. If `account` had been granted `role`, emits a {RoleRevoked} event. Requirements: - the caller must have ``role``'s admin role. May emit a {RoleRevoked} event."
      },
      "supportsInterface(bytes4)": {
        "details": "See {IERC165-supportsInterface}."
      }
    },
    "version": 1
  },
  "userdoc": {
    "kind": "user",
    "methods": {},
    "version": 1
  },
  "storageLayout": {
    "storage": [
      {
        "astId": 933,
        "contract": "contracts/retrieve/vault/Vault.sol:Vault",
        "label": "_status",
        "offset": 0,
        "slot": "0",
        "type": "t_uint256"
      },
      {
        "astId": 445,
        "contract": "contracts/retrieve/vault/Vault.sol:Vault",
        "label": "_roles",
        "offset": 0,
        "slot": "1",
        "type": "t_mapping(t_bytes32,t_struct(RoleData)440_storage)"
      },
      {
        "astId": 12383,
        "contract": "contracts/retrieve/vault/Vault.sol:Vault",
        "label": "vault",
        "offset": 0,
        "slot": "2",
        "type": "t_mapping(t_address,t_uint256)"
      },
      {
        "astId": 12406,
        "contract": "contracts/retrieve/vault/Vault.sol:Vault",
        "label": "settings",
        "offset": 0,
        "slot": "3",
        "type": "t_contract(Settings)12370"
      }
    ],
    "types": {
      "t_address": {
        "encoding": "inplace",
        "label": "address",
        "numberOfBytes": "20"
      },
      "t_bool": {
        "encoding": "inplace",
        "label": "bool",
        "numberOfBytes": "1"
      },
      "t_bytes32": {
        "encoding": "inplace",
        "label": "bytes32",
        "numberOfBytes": "32"
      },
      "t_contract(Settings)12370": {
        "encoding": "inplace",
        "label": "contract Settings",
        "numberOfBytes": "20"
      },
      "t_mapping(t_address,t_bool)": {
        "encoding": "mapping",
        "key": "t_address",
        "label": "mapping(address => bool)",
        "numberOfBytes": "32",
        "value": "t_bool"
      },
      "t_mapping(t_address,t_uint256)": {
        "encoding": "mapping",
        "key": "t_address",
        "label": "mapping(address => uint256)",
        "numberOfBytes": "32",
        "value": "t_uint256"
      },
      "t_mapping(t_bytes32,t_struct(RoleData)440_storage)": {
        "encoding": "mapping",
        "key": "t_bytes32",
        "label": "mapping(bytes32 => struct AccessControl.RoleData)",
        "numberOfBytes": "32",
        "value": "t_struct(RoleData)440_storage"
      },
      "t_struct(RoleData)440_storage": {
        "encoding": "inplace",
        "label": "struct AccessControl.RoleData",
        "members": [
          {
            "astId": 437,
            "contract": "contracts/retrieve/vault/Vault.sol:Vault",
            "label": "members",
            "offset": 0,
            "slot": "0",
            "type": "t_mapping(t_address,t_bool)"
          },
          {
            "astId": 439,
            "contract": "contracts/retrieve/vault/Vault.sol:Vault",
            "label": "adminRole",
            "offset": 0,
            "slot": "1",
            "type": "t_bytes32"
          }
        ],
        "numberOfBytes": "64"
      },
      "t_uint256": {
        "encoding": "inplace",
        "label": "uint256",
        "numberOfBytes": "32"
      }
    }
  }
}